:100DEE00204E6869657420446F3A20002743202006
:100DFE000043686F6E2043686520446F0050686141
:100E0E006D48696575750020436169204461743AC7
:100E1E002000202743002020444F204441493A20FF
:100E2E0000434D2020202000202020205068616D9E
:090E3E004869657575202020004B
:08100B00020A001902120000A4
:100EC300E4F516F517C3E5179FEE6480F8E516649D
:100ED3008098501C758901758CFC758A66D28C309C
:100EE3008DFDD28CC28D0517E51770D9051680D5F7
:010EF30022DC
:05101400C2A0D2A022E1
:0E0FF100EF1392A5EFA2E192A6A2E292A72230
:100F1800D2A1121014120FF1D2A4121014C2A412EA
:100F28001014C2A120A20512101480F8D2A3AF8019
:020F3800C2A352
:010F3A002294
:100E8C00E4FDFF120F7E7BFF7A0D79EE120F3BE42F
:100E9C00FF120F187514008F15AE147C017DF4121F
:100EAC0009DE7D001209F08E148F15120C897BFF60
:070EBC007A0D79FA020F3BE9
:100A8900120E47120FFFE4FD7F03120F7E7BFF7AE0
:100A99000D79FF120F3B7D017F04120F7E7BFF7AD8
:100AA9000E790B120F3B758901E4F58CF58A2094B8
:100AB9001C0513E513700205127F907E01120EC307
:100AC900E513640345127005F512751301E5136406
:100AD900014512706E120E8C20921B7D01E4FF12EB
:100AE9000F7E7BFF7A0E7915120F3B050BE50B7014
:100AF90002050AFF801D20932F7D01E4FF120F7E5E
:100B09007BFF7A0E7915120F3BE50B150B70021559
:100B19000AAF0BAE0A120C897BFF7A0E7920120FED
:100B29003B7FC87E00120EC3C3E515950BE50A6429
:100B390080F8E5146480984005C295020AB7D295F9
:100B4900020AB7E513640245126003020AB7D29597
:100B5900D2907F0AFE120EC3C29020911FC28CE46C
:100B6900F58CF58A050FE50F7002050E20910DC36E
:100B7900E50F9408E50E6480948050F030910CE400
:100B8900F58AF58CD28C2091FDC28CAF8CEFFEAD2D
:100B99008A7C00E42DF50DEC3EF50CFCAD0D120937
:100BA9000B7B8B7A6C7987783F1208001209448E87
:100BB900108F117C007D3A1209F08E088F09C3E568
:100BC900099403E508648094804015D3E5099405E8
:100BD900E5086480948050080509E5097002050854
:100BE900C3E5099418E508648094804015D3E509A4
:100BF9009429E508648094805008E5091509700274
:100C09001508C3E509942AE508648094804019D33E
:100C1900E509943BE50864809480500C74FE25092D
:100C2900F50974FF3508F508C3E509943CE508643E
:100C39008094804019D3E509944DE5086480948037
:100C4900500C74FD2509F50974FF3508F508E4FD14
:100C5900FF120F7E7BFF7A0E7924120F3BAF09AE8C
:100C690008120C897BFF7A0E792F120F3B7D01E464
:100C7900FF120F7E7BFF7A0E7936120F3B020AB7FD
:100FCD00E4FDFCC3ED9FEC9E50070DBD00010C80B0
:010FDD00F221
:010FDE0022F0
:100F5E00E4FDFCC3ED9FEC9E5015E4FBFA0BBB00C9
:0F0F6E00010AEB647D4A70F50DBD00010C80E4B3
:010F7D002251
:030FBA00120F9E75
:100FBD00D2B27F037E00120FCDC2B27F32020FCDAF
:100F9E00EF1392B4EFC3131392B5EF1313543F1321
:0C0FAE0092B6EF131313541F1392B722D6
:100FDF00AB07EBC4540FFF120FBAAF03120F9E02F1
:020FEF000FBD34
:0C0FFF007F01120FDF7F0A7E00020FCD81
:100E4700E4FF120F9E7F147E00120F5EC2B0C2B184
:100E57007F03120FBA7F057E00120F5E120FBD7F50
:100E6700647E00120FCD120FBD7F02120F9E120F6C
:100E7700BD7F28120FDF7F0C120FDF7F06120FDFF7
:050E87007F01020FDFF6
:100F7E00ED7006EF2480FA8004EF24C0FA7FE87E3D
:100F8E0003120FCDAF02120FDF7F327E00020FCDA4
:100EF4002430FF120F10AE18AF197C007D0A1209BE
:0C0F0400F07C007D0A1209F0ED2430FFA3
:080F1000D2B0120FDFC2B022C3
:100F3B008B188A19891AAB18AA19A91A1209C5FF95
:100F4B006010120F107401251AF51AE43519F519F2
:030F5B0080E4220D
:100C89008E188F19D3E5199409E51864809480505A
:100C990004EF020D5BD3E5199409E518648094808B
:100CA900402DE5199464E518648094805021AE18AC
:100CB900AF197C007D0A1209F0EF2430FF120F10E2
:100CC900AE18AF197C007D0A1209F0ED020D5BD355
:100CD900E5199463E518648094804029E51994E83E
:100CE900E51864809483501DAE18AF197C007D64AB
:100CF9001209F0EF120EF4AE18AF197C007D0A123A
:100D090009F0ED804DD3E51994E7E51864809483E3
:100D19004046E5199410E518648094A7503AAE1836
:100D2900AF197C037DE81209F0EF2430FF120F1090
:100D3900AE18AF197C007D641209F07C007D0A129F
:100D490009F0ED120EF4AE18AF197C007D0A1209F4
:090D5900F0ED2430FF120F10220E
:10080000EC4D6011E8497017ED33EC3304600DE4F2
:10081000FCFFFEFD22E933E8330470F80209B01250
:10082000097B58046009E4CC248150062850090251
:1008300009BA2840030209B7C0E0EB4A7044B98006
:1008400006D0E0FB0209A6EF4E701CBD8008EBFF4E
:10085000EAFEE9FD80EBE98DF0A4FEE5F00208E98F
:10086000E9CDF9EAFEEBFFEF89F0A4FCE5F0CE89D3
:10087000F0A42EFFE435F0CD89F0A42DFEE435F090
:100880008067EF4E7005BD80D780C3EF8BF0A4ACBE
:10089000F0EE8BF0A42CFCE435F0F8EF8AF0A42CF9
:1008A000E5F038FCE433CB8DF0A42CFCE5F03BF80C
:1008B000EE8AF0A42CFCE5F038F8E433CF89F0A4FC
:1008C0002CFCE5F038CF3400CE89F0A42FFFE5F002
:1008D0003EFEE433C98DF0A42EFEE5F039CD8AF05A
:1008E000A42FFFE5F03EFEE43DFD33D0E0FB5007D2
:1008F0000BBB000F0209BAEC2CFCEF33FFEE33FE0A
:06090000ED33FD02099237
:1009060075F020800E75F010800575F0087D007E6C
:10091600007F003392D530D503120A26EC334010FF
:10092600EF33FFEE33FEED33FDEC33FCD5F0ED2275
:0E093600E5F0247EA2D513CC92E7CDCEFF22B1
:10094400EDD2E7CD33EC3392D524814006E4FFFEAB
:10095400FDFC22FCE4CFCECDCC24E0501174FF800A
:10096400EDC3CC13CCCD13CDCE13CECF13CF0470A7
:07097400F030D5DE020A2677
:10097B00E9D2E7C933E833F892D5EDD2E7CD33ECC2
:07098B0033FC5002B2D5223B
:10099200EC30E7100FBF000C0EBE00080DBD0004C6
:1009A2000BEB6014A2D5EB13FCED92E7FD2274FF72
:1009B200FCFDFEFF22E480F8A2D574FF13FC7D80CB
:0309C200E480EFDF
:03000000020D628C
:0C0D6200787FE4F6D8FD75811A020DA917
:1009C500BB010689828A83E0225002E722BBFE0230
:0909D500E32289828A83E4932263
:1009DE00EF8DF0A4A8F0CF8CF0A428CE8DF0A42E2D
:0209EE00FE22E7
:1009F000C2D5EC30E709B2D5E4C39DFDE49CFCEE22
:100A000030E715B2D5E4C39FFFE49EFE120A34C35B
:100A1000E49DFDE49CFC8003120A3430D507C3E456
:060A20009FFFE49EFE2290
:0E0A2600C3E49FFFE49EFEE49DFDE49CFC22E1
:100D6E00020A89E493A3F8E493A34003F68001F208
:100D7E0008DFF48029E493A3F85407240CC8C33386
:100D8E00C4540F4420C8834004F456800146F6DF55
:100D9E00E4800B010204081020408090100BE47ECA
:100DAE00019360BCA3FF543F30E509541FFEE4934A
:100DBE00A360010ECF54C025E060A840B8E493A311
:100DCE00FAE493A3F8E493A3C8C582C8CAC583CA3C
:100DDE00F0A3C8C582C8CAC583CADFE9DEE780BEF4
:0110130000DC
:100A3400BC000BBE0029EF8DF084FFADF022E4CCA6
:100A4400F875F008EF2FFFEE33FEEC33FCEE9DEC6F
:100A5400984005FCEE9DFE0FD5F0E9E4CEFD22EDB5
:100A6400F8F5F0EE8420D21CFEADF075F008EF2FFF
:100A7400FFED33FD4007985006D5F0F222C398FDF0
:050A84000FD5F0EA228D
:00000001FF
