:0319A400014800F7
:0F1A7500E54875F005A4244CF8A60608A607223C
:0A1ACB00121AA27F027E00021A75B3
:0A1AD5001218A97F147E00021A7592
:0A1ADF00121A937F0A7E00021A75A6
:0A1AE90012129B7F017E00021A75A5
:0A1AF3001217137F647E00021A75BB
:1017F0007549FF754A1A754BCBE4F54CF54D754E9E
:10180000FF754F1A7550D5F551F5527553FF755444
:101810001A7555DFF556F5577558FF75591A755AEB
:10182000E9F55BF55C755DFF755E1A755FF3F56054
:03183000F561223D
:03000B0002176079
:0F176000C0E0C0F0C0D075D000C000C004C0070A
:10176F00E4FFEF75F005A4244CF8E6FC08E6D394EB
:10177F0000EC9400400FEF75F005A4244CF808E638
:0F178F0016187001160FBF05D9758C3B758AF9B6
:0D179E00D007D004D000D0D0D0F0D0E03281
:101A6500438901758C3B758AF9D2A9D2AFD28C22F4
:10183300C200E4F522E52275F005A4244CF8E6FE87
:1018430008E64E7017852248E52275F005A4244961
:10185300F808E6FA08E6F9120DD1D2000522E522CE
:0B186300C3940540D02000C84387015B
:02186E0080C335
:0F1A8400121A541217AB121A651217F002183308
:10148F00202020202043686F6E2043686520446F22
:10149F00202020200020202020205F5F5F5F5F5FE3
:1014AF005F5F5F5F5F202020202000202020202012
:1014BF00202020202020202020202020202020201D
:1014CF00002020202D2D2D5068616D4869657575A0
:1014DF002D2D2D2020202020002020202020204DC9
:1014EF006F64652028312920202020200020202013
:1014FF004E6869657420446F3A20002743202020EE
:10150F0020200020202020436169204461743A206C
:10151F00002743002020202020204D6F64652028C5
:10152F00322920202020200020204C696768742059
:10153F0053656E7365723A200053616E6700546F86
:10154F0069200053616E6720002020202020204D4D
:10155F006F646520283329202020202000202020A0
:10156F002020204741533A20005945532020202066
:10157F002020004E4F2020202020202000594553AE
:10158F0020202020004E4F20202020004D51323AA5
:0F159F0020004C4D33353A20004C44523A200086
:1019A700010A19010B00010900010800010E0001DD
:0B19B7000F00011000010D00010C00EA
:1019C300E4F511C3E5119FEE6480F8748098500E1E
:0F19D300E4F5120512E512B47DF9051180E52245
:051B0B00C2A0D2A022DF
:0E1AB100EF1392A5EFA2E192A6A2E292A72265
:10191E00D2A1121B0B121AB1D2A4121B0BC2A4120B
:10192E001B0BC2A120A205121B0B80F8D2A3AF8005
:02193E00C2A342
:011940002284
:1018A900E4FF12191E8F08AC08E41208AA7B6F7AAC
:1018B900127903783F1208031208DE8F08E508C37E
:0A18C900950A4003C29522D2952231
:0F1A9300A291E433F50FB50903C29622D2962231
:0F1AA200A290E433F50EB50B03C29722D2972220
:10129B007F0112191EEF2480600D24D6600E24AA44
:1012AB0070137510018007750D018002050C7F64AA
:1012BB007E001219C3E50CB40403E4F50CE50C70C5
:1012CB003EFDFF1218707BFF7A14798F1219417D46
:1012DB0001E4FF1218707BFF7A1479A41219417D77
:1012EB0002E4FF1218707BFF7A1479BA1219417D50
:1012FB0003E4FF1218707BFF7A1479D002148BE58C
:10130B000C640160030213A9FDFF1218707BFF7AB6
:10131B001479E81219417D01E4FF1218707BFF7AF2
:10132B001479FC121941AF087E001215AE7BFF7ABF
:10133B0015790A1219417D02E4FF1218707BFF7AAE
:10134B00157912121941AF0A7E001215AE7BFF7A86
:10135B00157920121941E510B4011D050A7D027F94
:10136B000D121870AF0A7E001215AE7BFF7A15793D
:10137B0020121941E4F51022E50D640160030214FB
:10138B008E150A7D027F0D121870AF0A7E001215A2
:10139B00AE7BFF7A157920121941E4F50D22E50C8D
:1013AB006402706CFDFF1218707BFF7A15792312A3
:1013BB0019417D01E4FF1218707BFF7A1579371202
:1013CB001941E50F7BFFB401067A15794880047A41
:1013DB0015794D121941E510B40108750901E4F5B1
:1013EB0010800AE50DB40105E4F509F50D7D02E465
:1013FB00FF1218707BFF7A157912121941E5097BE0
:10140B00FFB401067A15795280767A15794D807082
:10141B00E50C6403706DFDFF1218707BFF7A157974
:10142B00581219417D01E4FF1218707BFF7A157970
:10143B006C121941E50E7BFFB401067A15797880A1
:10144B00047A157982121941E510B40108750B0164
:10145B00E4F510800AE50DB40105E4F50BF50D7DFF
:10146B0002E4FF1218707BFF7A157912121941E50D
:10147B000B7BFFB401067A15798C80047A1579946D
:04148B0012194122CF
:101713007BFF7A15799B121964AF0E7E001219E2D2
:101723007F0D121AFD7BFF7A1579A1121964AF0898
:101733007E001219E27BFF7A1579201219647F0D5E
:10174300121AFD7BFF7A1579A8121964AF0F7E0078
:0D1753001219E27F0D121AFD7F0D021AFD22
:031B150025640044
:101A5400C29FD29E758920758DFDD28ED299D29C5B
:011A6400225F
:081AFD003099FDC2998F992276
:061964008B2C8A2D892E58
:10196A00E4FEAB2CAA2DA92E8E82758300120D18C7
:09197A00FF6006121AFD0E80E95F
:011983002241
:061B0500A298E433FF2268
:051B1000C298AF99220C
:1019E200752FFF75301B7531158E328F337B007A60
:0F19F200007922120E887B007A00792202196494
:101A3000E4FDFCC3ED9FEC9E50070DBD00010C8042
:011A4000F2B3
:011A41002282
:10198400E4FDFCC3ED9FEC9E5015E4FBFA0BBB0099
:0F199400010AEB647D4A70F50DBD00010C80E483
:0119A3002221
:031A1D00121A0199
:101A2000D2B27F037E00121A30C2B27F32021A3065
:101A0100EF1392B4EFC3131392B5EF1313543F13B3
:0C1A110092B6EF131313541F1392B72268
:101A4200AB07EBC4540FFF121A1DAF03121A0102A7
:021A52001A2058
:0C1ABF007F01121A427F0A7E00021A30DA
:1017AB00E4FF121A017F147E00121984C292C293B5
:1017BB007F03121A1D7F057E00121984121A207FD7
:1017CB00647E00121A30121A207F02121A01121AAA
:1017DB00207F28121A427F0C121A427F06121A42DD
:0517EB007F01021A421B
:10187000ED14600C14600F146012240370148012B5
:10188000EF24C0FA8010EF2494FA800AEF24D4FAEF
:101890008004EF2480FA7FE87E03121A30AF021230
:0918A0001A427F327E00021A3068
:1018FA002430FF121916AE22AF237C007D0A120D86
:0C190A00577C007D0A120D57ED2430FFC1
:08191600D292121A42C2922281
:101941008B228A238924AB22AA23A924120CFFFF0C
:10195100601012191674012524F524E43523F523AA
:0319610080E422FD
:1015AE008E228F23D3E5239409E522648094805004
:1015BE0004EF021680D3E5239409E522648094801B
:1015CE00402DE5239464E522648094805021AE2260
:1015DE00AF237C007D0A120D57EF2430FF1219162F
:1015EE00AE22AF237C007D0A120D57ED021680D37A
:1015FE00E5239463E522648094804029E52394E8F2
:10160E00E52264809483501DAE22AF237C007D645E
:10161E00120D57EF1218FAAE22AF237C007D0A127C
:10162E000D57ED804DD3E52394E7E5226480948336
:10163E004046E5239410E522648094A7503AAE22EA
:10164E00AF237C037DE8120D57EF2430FF121916DD
:10165E00AE22AF237C007D64120D577C007D0A12F2
:10166E000D57ED1218FAAE22AF237C007D0A120D33
:09167E0057ED2430FF1219162269
:10080000020954EC5D046005E85904700302094ACA
:10081000120915580460F6EC4860F2EC7004FDFE15
:10082000FF22C860DB2481C85009C39860025006CB
:100830000209519850CAF582E9294B4A7005AB82EA
:1008400002094075F0007C1A7880C3EF9BEE9AEDA8
:1008500099400DC3EF9BFFEE9AFEED99FDE842F043
:10086000DC23ACF0D0E0FFD0E0FED0E0FDAB822096
:10087000E7101BEB60BAEC2CFCEF33FFEE33FEED20
:1008800033FD02092CE803F830E705C0F075F000ED
:10089000EF2FFFEE33FEED33FD40B830E7C280AA04
:1008A00075F020800E75F010800575F0087D007ED3
:1008B000007F003392D530D503120D8DEC334010FC
:1008C000EF33FFEE33FEED33FDEC33FCD5F0ED22DC
:0E08D000E5F0247EA2D513CC92E7CDCEFF2218
:1008DE00EDD2E7CD33EC3392D524814006E4FFFE12
:1008EE00FDFC22FCE4CFCECDCC24E0501174FF8071
:1008FE00EDC3CC13CCCD13CDCE13CECF13CF04700E
:07090E00F030D5DE020D8D73
:100E2C00E543242FF8E6054322782C300702782F6F
:100E3C00E475F001120D9B020CFF2000EB7F2ED20B
:100E4C00008018EF540F2490D43440D4FF30040B9E
:100E5C00EF24BFB41A0050032461FFE5446002156F
:100E6C00440547E5477002054630070D782CE475BC
:100E7C00F001120D9BEF020D450218D37403D2073B
:100E8C008003E4C207F5438B2C8A2D892EE4F544AC
:100E9C00F546F547E54460077F20120E6780F5752F
:100EAC0045FFC201C200C202C203C205C206C2088B
:100EBC00120E35FF700D3007057F00120E78AF470C
:100ECC00AE4622B4255FC2D5C204120E35FF24D023
:100EDC00B40A00501A75F00A784430D50508B6FFEC
:100EEC000106C6A426F620D5047002D20380D924AC
:100EFC00CFB41A00EF5004C2E5D204021165D2013E
:100F0C0080C6D20080C0D20280BCD2D580BAD205B5
:100F1C0080B47F20120E672002077401B544004094
:100F2C00F1120E2CFF120E67020EA0D208D2068010
:100F3C0095120E2CFB120E2CFA120E2CF94A4B7039
:100F4C0006795C7A127BFF20022EE544602A7E0033
:100F5C008E82758300120D1860060EEE654570F0DA
:100F6C00C2D5EBC0E0EAC0E0E9C0E0EE1211C5D09A
:100F7C00E0F9D0E0FAD0E0FB120CFFFF60AAEBC066
:100F8C00E0EAC0E0E9C0E0120E67D0E02401F9D03D
:100F9C00E03400FAD0E0FBE5450460DCD545D980AF
:100FAC0087D20280A21211A860F7E54570010412E5
:100FBC00095FA945600DE545600914F54512124F0E
:100FCC00EF60F3EA30E702F404C3995077EAF425B2
:100FDC00450430E701E404F545800D1211A860C109
:100FEC00EA0545254512095FEA7842F630E701E447
:100FFC00254504D54504200501141211C5E4C0E0B3
:10100C0012124F7842E6601320E70714F6120E4FC7
:10101C00802204F6D0E014C0E07F00120E4FE545AC
:10102C006007120E461545800B300503120E46D094
:10103C00E0020EA0D0E00480C51211A860A0E54526
:10104C000412095F7842EAF6E545200502600104C6
:05105C0024041211C57F
:1010610074FF04C0E012124F120E4FE54520050235
:101071006003120E46D0E0B545E87F45120E59785F
:1010810042E67F2B30E7047F2DF404C0E0120E67A7
:10109100D0E075F00A84C0F0120E50D0E0120E506C
:1010A100020EA0791080027908C206C2088008D217
:1010B100D5790A8004790AC2D5E545047002F5455F
:1010C100E4FAFDFEFF120E2CFC7B08200113120E28
:1010D1002CFD7B1030000A120E2CFE120E2CFF7B11
:1010E10020EC3382D592D55013C3E43000069FFF24
:1010F100E49EFEE42001039DFDE49CFCE4CBF8C2E8
:1011010001EC700CCFCECDCCE824F8F870F3801749
:10111100C3EF33FFEE33FEED33FDEC33FCEB33FB7A
:10112100994002FB0FD8E9EB300105F8D0E0C44843
:10113100B201C0E00AEC4D4E4F78207B0070C2EA4C
:10114100B5450040BCC0E01211C7D0F0D0E020018D
:1011510004C4C0E0C4B201C0F0120E50D0F0D5F00A
:10116100EB020EA0120DAB0F3D5310A4580F0E4C05
:101171000F0A4210A84F10B04410B0490F2343107A
:10118100B6550FE7461045450FB147127C500F1277
:101191002D0F162E0F392B0F1A230F372012652A08
:1011A1000ED24800000F31E545B4FF037545061224
:1011B1000E2CFC120E2CFD120E2CFE120E2CFF78A2
:1011C1003B02098E790AA2D5200314300509B91012
:1011D100020404B9080104A2D5200602500104202A
:1011E10002689202B544005034C0E07F20300319F8
:1011F1007F30A20272067205500F12121EC202C285
:1012010006C205C2087F30800F300503E9C0E01235
:101211000E67300503D0E0F9D0E0B544CC300517B6
:101221007F30B9100C120E677F583004077F788029
:1012310003B90803120E673002057F2D020E677F86
:10124100202008F87F2B2006F322920280CF7F0016
:10125100B407005005243BF8E6FF22286E756C6C3C
:101261002900D201120E2C3001F8C201784430D588
:101271000108F6020ED22D50434958120E2C2403B8
:10128100B405004001E490127793120E58743A129B
:0A1291000E58D2037544040210A4A5
:10091500E9D2E7C933E833F892D5EDD2E7CD33EC28
:0709250033FC5002B2D522A1
:10092C00EC30E7100FBF000C0EBE00080DBD00042C
:10093C000BEB6014A2D5EB13FCED92E7FD2274FFD8
:10094C00FCFDFEFF22E480F8A2D574FF13FC7D8031
:03095C00E480EF45
:10095F00F920E72824F950037907E4F42402FB185F
:10096F00DBFDE624FB5014E9600DE4F618E604F60F
:0F097F00B40A08E4F6D9F57401F60A22C2D522AB
:10098E00ED33EC3392D5FA602AB4FF33EDC2E77B38
:10099E00FF60067A0979B3E4227A0979BC20D5047E
:1009AE007A0979B7224E614E002B494E46002D49E9
:1009BE004E4600E47A08F608DAFC7B00740722E85B
:1009CE00C0E0ECC0E0EDC0E0EEC0E0EFC0E0EA75E4
:1009DE00F010A4CAABF075F04DA42BFBE435F0FC7F
:1009EE00EA2410FAEB34C5FBEC34D9FCEDC2E7FF78
:1009FE0075F056A4F42411C5F0F434C58FF0A42A72
:100A0E00E5F03BE43CF620E714120CBFD0E0FFD03B
:100A1E00E0FED0E0FDD0E0FC1208038014F40412D6
:100A2E000CBFD0E0FFD0E0FED0E0FDD0E0FC120B1A
:100A3E0089D0E0F8E6FAEDD2E7CD33EC332482FB31
:100A4E00E4C3CF33CFCE33CECD33CD33DBF37B0701
:100A5E0075F00A846004F6081B0AE5F0F6088FF0BC
:100A6E00740AA4FFACF08EF0740AA42CFEACF05005
:100A7E00010C8DF0740AA42CFDE435F0F608DBDED3
:030A8E00740722C8
:100A910002094AE86480F8E933E83360110460F040
:100AA100ED33EC337009E8FCE9FDEAFEEBFF2204CB
:100AB10060DED3EB9FEA9EE99DE8C2E78CF0C2F7C6
:100AC10095F0400CE8CCF8E9CDF9EACEFAEBCFFB92
:100AD10012091585D0F05804700320D5B3E80470CD
:100AE100075002B2D502095492D5EC0460F7E4CC68
:100AF100C0E0C398F8603B94186008400DD0E0FB5B
:100B010002092CE4FBFAC9FC8028E830E406E4C9B8
:100B1100FBE4CAFCE830E305E4C9CACBFCE85407AE
:100B21006010F8C3E913F9EA13FAEB13FBEC13FCB9
:100B3100D8F130F52FC3E49CFCEF9BFFEE9AFEED5C
:100B410099FDD0E0FBEF4E4D4C701222DB03020900
:100B510051EC2CFCEF33FFEE33FEED33FDED30E7CE
:100B6100EB02092CEF2BFFEE3AFEED39FDD0E0FB55
:100B710050130BBB0003020954ED13FDEE13FEEFFE
:080B810013FFEC13FC02092C28
:100B8900EC4D6011E8497017ED33EC3304600DE466
:100B9900FCFFFEFD22E933E8330470F802094A122A
:100BA900091558046009E4CC24815006285009022B
:100BB9000954284003020951C0E0EB4A7044B98046
:100BC90006D0E0FB020940EF4E701CBD8008EBFF28
:100BD900EAFEE9FD80EBE98DF0A4FEE5F0020C7276
:100BE900E9CDF9EAFEEBFFEF89F0A4FCE5F0CE8947
:100BF900F0A42EFFE435F0CD89F0A42DFEE435F004
:100C09008067EF4E7005BD80D780C3EF8BF0A4AC31
:100C1900F0EE8BF0A42CFCE435F0F8EF8AF0A42C6C
:100C2900E5F038FCE433CB8DF0A42CFCE5F03BF87F
:100C3900EE8AF0A42CFCE5F038F8E433CF89F0A46F
:100C49002CFCE5F038CF3400CE89F0A42FFFE5F075
:100C59003EFEE433C98DF0A42EFEE5F039CD8AF0CD
:100C6900A42FFFE5F03EFEE43DFD33D0E0FB500745
:100C79000BBB000F020954EC2CFCEF33FFEE33FEE3
:060C8900ED33FD02092C11
:100C8F003F8000004120000042C80000447A00006D
:100C9F00461C400047C35000497424004B189680EF
:100CAF004CBEBC205A0E1BCA6753C21C749DC5AEE6
:100CBF00FB60065407601C2323120CEDEB543860C5
:100CCF0009120CD9120CE8120B89ECF8EDF9EEFAB7
:100CDF00EFCB22EB120CE880F1543803241C900C5C
:100CEF008FFE93FC0EEE93FD0EEE930ECE93FF222E
:030000000216875E
:0C168700787FE4F6D8FD7581610216CE74
:100CFF00BB010689828A83E0225002E722BBFE02F3
:090D0F00E32289828A83E4932225
:100D1800BB010CE58229F582E5833AF583E0225090
:100D280006E92582F8E622BBFE06E92582F8E222DA
:0D0D3800E58229F582E5833AF583E49322F4
:100D4500BB010689828A83F0225002F722BBFE018D
:020D5500F32287
:100D5700C2D5EC30E709B2D5E4C39DFDE49CFCEEB7
:100D670030E715B2D5E4C39FFFE49EFE120DD7C34B
:100D7700E49DFDE49CFC8003120DD730D507C3E446
:060D87009FFFE49EFE2226
:0E0D8D00C3E49FFFE49EFEE49DFDE49CFC2277
:100D9B00FAE6FB0808E6F925F0F618E6CA3AF62259
:100DAB00D083D082F8E4937012740193700DA3A3D7
:100DBB0093F8740193F5828883E4737402936860EB
:060DCB00EFA3A3A380DFEB
:060DD1008A838982E473AD
:1018D300EFB40A07740D1218DE740A309811A89930
:1018E300B8130CC2983098FDA899C298B811F63075
:0718F30099FDC299F599224D
:10169300021A84E493A3F8E493A34003F68001F2CF
:1016A30008DFF48029E493A3F85407240CC8C33358
:1016B300C4540F4420C8834004F456800146F6DF27
:1016C300E4800B01020408102040809019A4E47EFA
:1016D300019360BCA3FF543F30E509541FFEE4931C
:1016E300A360010ECF54C025E060A840B8E493A3E3
:1016F300FAE493A3F8E493A3C8C582C8CAC583CA0E
:10170300F0A3C8C582C8CAC583CADFE9DEE780BEC5
:0119C2000024
:100DD700BC000BBE0029EF8DF084FFADF022E4CC00
:100DE700F875F008EF2FFFEE33FEEC33FCEE9DECC9
:100DF700984005FCEE9DFE0FD5F0E9E4CEFD22ED0F
:100E0700F8F5F0EE8420D21CFEADF075F008EF2F58
:100E1700FFED33FD4007985006D5F0F222C398FD49
:050E27000FD5F0EA22E6
:00000001FF
