:100ACB00202043686F6E204368696575204443009E
:100ADB002020202043686F6E204D6F64650020201E
:100AEB0020202044433A204F4E202020202020203D
:100AFB0000202020202044433A204F46462020202F
:100B0B0020202000202043686965753A20546875C1
:100B1B00616E2020202020202020002020436869A7
:100B2B0065753A204E676869636820202020202075
:030B3B0020200077
:050CB900C1000108006C
:040B83007F2C7E0144
:100B8700E4F509F50AC3E50A9FEE6480F8E5096410
:100B97008098501C758901758CFC758A66D28C30DB
:100BA7008DFDC28CC28D050AE50A70D9050980D56D
:010BB700221B
:090C9E00C2A0C2A1D2A2D2A3227D
:090CA700D2A0D2A1C2A2C2A32274
:090CB000C2A0C2A1C2A2C2A3228B
:1008D900120B3E120C92E4FDFF120C1F7BFF7A0AE9
:1008E90079CB120BDC7D01E4FF120C1F7BFF7A0A26
:1008F90079DB120BDC20A636B200300018120C9EF0
:100909007D01E4FF120C1F7BFF7A0A79E9120BDCE7
:100919007508018016120CB07D01E4FF120C1F7BD3
:10092900FF7A0A79FC120BDCE4F508120B83E5085F
:10093900B401047F0180027F0020A4047E018002AB
:100949007E00EE5F6018120C9E7D01E4FF120C1F01
:100959007BFF7A0B790F120BDC120B838097E5086A
:10096900B401047F0180027F0020A5047E0180027A
:100979007E00EE5F70030208FE120CA77D01E4FF02
:10098900120C1F7BFF7A0B7926120BDC120B8302E8
:0209990008FE56
:100C6E00E4FDFCC3ED9FEC9E50070DBD00010C8012
:010C7E00F283
:010C7F002252
:100BFF00E4FDFCC3ED9FEC9E5015E4FBFA0BBB002C
:0F0C0F00010AEB647D4A70F50DBD00010C80E415
:010C1E0022B3
:030C5B00120C3F39
:100C5E00D2927F037E00120C6EC2927F32020C6E15
:100C3F00EF139293EFC313139294EF1313543F13C5
:0C0C4F009295EF131313541F139296227A
:100C8000AB07EBC4540FFF120C5BAF03120C3F0217
:020C90000C5EF8
:0C0C92007F01120C807F0A7E00020C6EB5
:100B3E00E4FF120C3F7F147E00120BFFC290C29195
:100B4E007F03120C5B7F057E00120BFF120C5E7F83
:100B5E00647E00120C6E120C5E7F02120C3F120CA1
:100B6E005E7F28120C807F0C120C807F06120C8088
:050B7E007F01020C8064
:100C1F00ED7006EF2480FA8004EF24C0FA7FE87E9F
:100C2F0003120C6EAF02120C807F327E00020C6E2C
:100BB8002430FF120BD4AE0EAF0F7C007D0A120951
:0C0BC800B47C007D0A1209B4ED2430FF5B
:080BD400D290120C80C29022A5
:100BDC008B0B8A0C890DAB0BAA0CA90D12099BFF70
:100BEC006010120BD47401250DF50DE4350CF50CC9
:030BFC0080E42270
:100800008E0E8F0FD3E50F9409E50E64809480500F
:1008100004EF0208D2D3E50F9409E50E64809480BA
:10082000402DE50F9464E50E648094805021AE0E57
:10083000AF0F7C007D0A1209B4EF2430FF120BD4F5
:10084000AE0EAF0F7C007D0A1209B4ED0208D2D3C0
:10085000E50F9463E50E648094804029E50F94E8E9
:10086000E50E64809483501DAE0EAF0F7C007D6456
:100870001209B4EF120BB8AE0EAF0F7C007D0A1256
:1008800009B4ED804DD3E50F94E7E50E64809483C1
:100890004046E50F9410E50E648094A7503AAE0EE2
:1008A000AF0F7C037DE81209B4EF2430FF120BD4A4
:1008B000AE0EAF0F7C007D641209B47C007D0A127D
:1008C00009B4ED120BB8AE0EAF0F7C007D0A120911
:0908D000B4ED2430FF120BD42218
:03000000020A3FB2
:0C0A3F00787FE4F6D8FD758120020A865D
:10099B00BB010689828A83E0225002E722BBFE025A
:0909AB00E32289828A83E493228D
:1009B400C2D5EC30E709B2D5E4C39DFDE49CFCEE5E
:1009C40030E715B2D5E4C39FFFE49EFE1209EAC3E3
:1009D400E49DFDE49CFC80031209EA30D507C3E4DE
:0609E4009FFFE49EFE22CD
:100A4B000208D9E493A3F8E493A34003F68001F2E0
:100A5B0008DFF48029E493A3F85407240CC8C333AC
:100A6B00C4540F4420C8834004F456800146F6DF7B
:100A7B00E4800B0102040810204080900CB9E47E46
:100A8B00019360BCA3FF543F30E509541FFEE49370
:100A9B00A360010ECF54C025E060A840B8E493A337
:100AAB00FAE493A3F8E493A3C8C582C8CAC583CA62
:100ABB00F0A3C8C582C8CAC583CADFE9DEE780BE1A
:010CBE000035
:1009EA00BC000BBE0029EF8DF084FFADF022E4CCF1
:1009FA00F875F008EF2FFFEE33FEEC33FCEE9DECBA
:100A0A00984005FCEE9DFE0FD5F0E9E4CEFD22EDFF
:100A1A00F8F5F0EE8420D21CFEADF075F008EF2F49
:100A2A00FFED33FD4007985006D5F0F222C398FD3A
:050A3A000FD5F0EA22D7
:00000001FF
