:09087600414243313233400D00D0
:10084D00C29FD29E758920758DFDD28ED299D29C74
:01085D002278
:08087F003099FDC2998F992206
:06082D008B088A09890A0C
:10083300E4FEAB08AA09A90A8E8275830012080098
:09084300FF600612087F0E80E937
:01084C002289
:06088700A298E433FF22F9
:05088D00C298AF9922A2
:0C085E0012084D7BFF7A08797602082D05
:0300000002086A89
:0C086A00787FE4F6D8FD75810A02085E74
:10080000BB010CE58229F582E5833AF583E02250AD
:1008100006E92582F8E622BBFE06E92582F8E222F7
:0D082000E58229F582E5833AF583E4932211
:00000001FF
